{
  "contractName": "OrganicFood",
  "abi": [
    {
      "inputs": [],
      "name": "id",
      "outputs": [
        {
          "internalType": "uint256",
          "name": "",
          "type": "uint256"
        }
      ],
      "stateMutability": "view",
      "type": "function",
      "constant": true
    },
    {
      "inputs": [
        {
          "internalType": "uint256",
          "name": "",
          "type": "uint256"
        }
      ],
      "name": "products",
      "outputs": [
        {
          "internalType": "string",
          "name": "name",
          "type": "string"
        },
        {
          "internalType": "string",
          "name": "productId",
          "type": "string"
        },
        {
          "internalType": "bool",
          "name": "isNaturalFertilizer",
          "type": "bool"
        },
        {
          "internalType": "bool",
          "name": "isChemical",
          "type": "bool"
        },
        {
          "internalType": "bool",
          "name": "isNutrients",
          "type": "bool"
        },
        {
          "internalType": "string",
          "name": "farmer",
          "type": "string"
        },
        {
          "internalType": "string",
          "name": "location",
          "type": "string"
        }
      ],
      "stateMutability": "view",
      "type": "function",
      "constant": true
    },
    {
      "inputs": [
        {
          "internalType": "string",
          "name": "name",
          "type": "string"
        },
        {
          "internalType": "string",
          "name": "productId",
          "type": "string"
        },
        {
          "internalType": "bool",
          "name": "isNaturalFertilizer",
          "type": "bool"
        },
        {
          "internalType": "bool",
          "name": "isChemical",
          "type": "bool"
        },
        {
          "internalType": "bool",
          "name": "isNutrients",
          "type": "bool"
        },
        {
          "internalType": "string",
          "name": "farmer",
          "type": "string"
        },
        {
          "internalType": "string",
          "name": "location",
          "type": "string"
        }
      ],
      "name": "createProduct",
      "outputs": [],
      "stateMutability": "nonpayable",
      "type": "function"
    },
    {
      "inputs": [],
      "name": "listAllProducts",
      "outputs": [
        {
          "components": [
            {
              "internalType": "string",
              "name": "name",
              "type": "string"
            },
            {
              "internalType": "string",
              "name": "productId",
              "type": "string"
            },
            {
              "internalType": "bool",
              "name": "isNaturalFertilizer",
              "type": "bool"
            },
            {
              "internalType": "bool",
              "name": "isChemical",
              "type": "bool"
            },
            {
              "internalType": "bool",
              "name": "isNutrients",
              "type": "bool"
            },
            {
              "internalType": "string",
              "name": "farmer",
              "type": "string"
            },
            {
              "internalType": "string",
              "name": "location",
              "type": "string"
            }
          ],
          "internalType": "struct OrganicFood.Product[]",
          "name": "",
          "type": "tuple[]"
        }
      ],
      "stateMutability": "view",
      "type": "function",
      "constant": true
    },
    {
      "inputs": [
        {
          "internalType": "string",
          "name": "productId",
          "type": "string"
        }
      ],
      "name": "checkProductOrganic",
      "outputs": [
        {
          "internalType": "bool",
          "name": "",
          "type": "bool"
        }
      ],
      "stateMutability": "view",
      "type": "function",
      "constant": true
    },
    {
      "inputs": [],
      "name": "verifyOrganicList",
      "outputs": [],
      "stateMutability": "nonpayable",
      "type": "function"
    },
    {
      "inputs": [],
      "name": "listAllOrganicProducts",
      "outputs": [
        {
          "components": [
            {
              "internalType": "string",
              "name": "name",
              "type": "string"
            },
            {
              "internalType": "string",
              "name": "productId",
              "type": "string"
            },
            {
              "internalType": "bool",
              "name": "isNaturalFertilizer",
              "type": "bool"
            },
            {
              "internalType": "bool",
              "name": "isChemical",
              "type": "bool"
            },
            {
              "internalType": "bool",
              "name": "isNutrients",
              "type": "bool"
            },
            {
              "internalType": "string",
              "name": "farmer",
              "type": "string"
            },
            {
              "internalType": "string",
              "name": "location",
              "type": "string"
            }
          ],
          "internalType": "struct OrganicFood.Product[]",
          "name": "",
          "type": "tuple[]"
        }
      ],
      "stateMutability": "view",
      "type": "function",
      "constant": true
    },
    {
      "inputs": [
        {
          "internalType": "string",
          "name": "location",
          "type": "string"
        }
      ],
      "name": "searchByLocation",
      "outputs": [
        {
          "components": [
            {
              "internalType": "string",
              "name": "name",
              "type": "string"
            },
            {
              "internalType": "string",
              "name": "productId",
              "type": "string"
            },
            {
              "internalType": "bool",
              "name": "isNaturalFertilizer",
              "type": "bool"
            },
            {
              "internalType": "bool",
              "name": "isChemical",
              "type": "bool"
            },
            {
              "internalType": "bool",
              "name": "isNutrients",
              "type": "bool"
            },
            {
              "internalType": "string",
              "name": "farmer",
              "type": "string"
            },
            {
              "internalType": "string",
              "name": "location",
              "type": "string"
            }
          ],
          "internalType": "struct OrganicFood.Product[]",
          "name": "",
          "type": "tuple[]"
        }
      ],
      "stateMutability": "nonpayable",
      "type": "function"
    },
    {
      "inputs": [
        {
          "internalType": "string",
          "name": "inputString",
          "type": "string"
        },
        {
          "internalType": "enum OrganicFood.SearchType",
          "name": "searchType",
          "type": "uint8"
        }
      ],
      "name": "search",
      "outputs": [
        {
          "components": [
            {
              "internalType": "string",
              "name": "name",
              "type": "string"
            },
            {
              "internalType": "string",
              "name": "productId",
              "type": "string"
            },
            {
              "internalType": "bool",
              "name": "isNaturalFertilizer",
              "type": "bool"
            },
            {
              "internalType": "bool",
              "name": "isChemical",
              "type": "bool"
            },
            {
              "internalType": "bool",
              "name": "isNutrients",
              "type": "bool"
            },
            {
              "internalType": "string",
              "name": "farmer",
              "type": "string"
            },
            {
              "internalType": "string",
              "name": "location",
              "type": "string"
            }
          ],
          "internalType": "struct OrganicFood.Product[]",
          "name": "",
          "type": "tuple[]"
        }
      ],
      "stateMutability": "nonpayable",
      "type": "function"
    },
    {
      "inputs": [],
      "name": "getSearchResult",
      "outputs": [
        {
          "components": [
            {
              "internalType": "string",
              "name": "name",
              "type": "string"
            },
            {
              "internalType": "string",
              "name": "productId",
              "type": "string"
            },
            {
              "internalType": "bool",
              "name": "isNaturalFertilizer",
              "type": "bool"
            },
            {
              "internalType": "bool",
              "name": "isChemical",
              "type": "bool"
            },
            {
              "internalType": "bool",
              "name": "isNutrients",
              "type": "bool"
            },
            {
              "internalType": "string",
              "name": "farmer",
              "type": "string"
            },
            {
              "internalType": "string",
              "name": "location",
              "type": "string"
            }
          ],
          "internalType": "struct OrganicFood.Product[]",
          "name": "",
          "type": "tuple[]"
        }
      ],
      "stateMutability": "view",
      "type": "function",
      "constant": true
    }
  ],
  "bytecode": "0x6080604052600060015534801561001557600080fd5b5061377d806100256000396000f3fe608060405234801561001057600080fd5b506004361061009e5760003560e01c80639babbb54116100665780639babbb5414610161578063af640d0f14610191578063af80d25c146101af578063c8f83bf3146101cd578063cdc58d2a146101fd5761009e565b806333da333b146100a357806338b43d93146100d35780637acc0b20146100f157806397e10e89146101275780639b1b17ec14610145575b600080fd5b6100bd60048036038101906100b89190612be6565b610207565b6040516100ca9190612e3c565b60405180910390f35b6100db61050c565b6040516100e89190612e3c565b60405180910390f35b61010b60048036038101906101069190612e94565b610804565b60405161011e9796959493929190612f1a565b60405180910390f35b61012f610a8d565b60405161013c9190612e3c565b60405180910390f35b61015f600480360381019061015a9190612fd1565b610d85565b005b61017b60048036038101906101769190612be6565b610fcc565b60405161018891906130e3565b60405180910390f35b61019961114d565b6040516101a6919061310d565b60405180910390f35b6101b7611153565b6040516101c49190612e3c565b60405180910390f35b6101e760048036038101906101e2919061314d565b61144b565b6040516101f49190612e3c565b60405180910390f35b61020561158a565b005b60606105056002805480602002602001604051908101604052809291908181526020016000905b828210156104f957838290600052602060002090600502016040518060e0016040529081600082018054610261906131d8565b80601f016020809104026020016040519081016040528092919081815260200182805461028d906131d8565b80156102da5780601f106102af576101008083540402835291602001916102da565b820191906000526020600020905b8154815290600101906020018083116102bd57829003601f168201915b505050505081526020016001820180546102f3906131d8565b80601f016020809104026020016040519081016040528092919081815260200182805461031f906131d8565b801561036c5780601f106103415761010080835404028352916020019161036c565b820191906000526020600020905b81548152906001019060200180831161034f57829003601f168201915b505050505081526020016002820160009054906101000a900460ff161515151581526020016002820160019054906101000a900460ff161515151581526020016002820160029054906101000a900460ff161515151581526020016003820180546103d6906131d8565b80601f0160208091040260200160405190810160405280929190818152602001828054610402906131d8565b801561044f5780601f106104245761010080835404028352916020019161044f565b820191906000526020600020905b81548152906001019060200180831161043257829003601f168201915b50505050508152602001600482018054610468906131d8565b80601f0160208091040260200160405190810160405280929190818152602001828054610494906131d8565b80156104e15780601f106104b6576101008083540402835291602001916104e1565b820191906000526020600020905b8154815290600101906020018083116104c457829003601f168201915b5050505050815250508152602001906001019061022e565b5050505083600461179c565b9050919050565b60606002805480602002602001604051908101604052809291908181526020016000905b828210156107fb57838290600052602060002090600502016040518060e0016040529081600082018054610563906131d8565b80601f016020809104026020016040519081016040528092919081815260200182805461058f906131d8565b80156105dc5780601f106105b1576101008083540402835291602001916105dc565b820191906000526020600020905b8154815290600101906020018083116105bf57829003601f168201915b505050505081526020016001820180546105f5906131d8565b80601f0160208091040260200160405190810160405280929190818152602001828054610621906131d8565b801561066e5780601f106106435761010080835404028352916020019161066e565b820191906000526020600020905b81548152906001019060200180831161065157829003601f168201915b505050505081526020016002820160009054906101000a900460ff161515151581526020016002820160019054906101000a900460ff161515151581526020016002820160029054906101000a900460ff161515151581526020016003820180546106d8906131d8565b80601f0160208091040260200160405190810160405280929190818152602001828054610704906131d8565b80156107515780601f1061072657610100808354040283529160200191610751565b820191906000526020600020905b81548152906001019060200180831161073457829003601f168201915b5050505050815260200160048201805461076a906131d8565b80601f0160208091040260200160405190810160405280929190818152602001828054610796906131d8565b80156107e35780601f106107b8576101008083540402835291602001916107e3565b820191906000526020600020905b8154815290600101906020018083116107c657829003601f168201915b50505050508152505081526020019060010190610530565b50505050905090565b6000602052806000526040600020600091509050806000018054610827906131d8565b80601f0160208091040260200160405190810160405280929190818152602001828054610853906131d8565b80156108a05780601f10610875576101008083540402835291602001916108a0565b820191906000526020600020905b81548152906001019060200180831161088357829003601f168201915b5050505050908060010180546108b5906131d8565b80601f01602080910402602001604051908101604052809291908181526020018280546108e1906131d8565b801561092e5780601f106109035761010080835404028352916020019161092e565b820191906000526020600020905b81548152906001019060200180831161091157829003601f168201915b5050505050908060020160009054906101000a900460ff16908060020160019054906101000a900460ff16908060020160029054906101000a900460ff169080600301805461097c906131d8565b80601f01602080910402602001604051908101604052809291908181526020018280546109a8906131d8565b80156109f55780601f106109ca576101008083540402835291602001916109f5565b820191906000526020600020905b8154815290600101906020018083116109d857829003601f168201915b505050505090806004018054610a0a906131d8565b80601f0160208091040260200160405190810160405280929190818152602001828054610a36906131d8565b8015610a835780601f10610a5857610100808354040283529160200191610a83565b820191906000526020600020905b815481529060010190602001808311610a6657829003601f168201915b5050505050905087565b60606003805480602002602001604051908101604052809291908181526020016000905b82821015610d7c57838290600052602060002090600502016040518060e0016040529081600082018054610ae4906131d8565b80601f0160208091040260200160405190810160405280929190818152602001828054610b10906131d8565b8015610b5d5780601f10610b3257610100808354040283529160200191610b5d565b820191906000526020600020905b815481529060010190602001808311610b4057829003601f168201915b50505050508152602001600182018054610b76906131d8565b80601f0160208091040260200160405190810160405280929190818152602001828054610ba2906131d8565b8015610bef5780601f10610bc457610100808354040283529160200191610bef565b820191906000526020600020905b815481529060010190602001808311610bd257829003601f168201915b505050505081526020016002820160009054906101000a900460ff161515151581526020016002820160019054906101000a900460ff161515151581526020016002820160029054906101000a900460ff16151515158152602001600382018054610c59906131d8565b80601f0160208091040260200160405190810160405280929190818152602001828054610c85906131d8565b8015610cd25780601f10610ca757610100808354040283529160200191610cd2565b820191906000526020600020905b815481529060010190602001808311610cb557829003601f168201915b50505050508152602001600482018054610ceb906131d8565b80601f0160208091040260200160405190810160405280929190818152602001828054610d17906131d8565b8015610d645780601f10610d3957610100808354040283529160200191610d64565b820191906000526020600020905b815481529060010190602001808311610d4757829003601f168201915b50505050508152505081526020019060010190610ab1565b50505050905090565b60016000815480929190610d9890613238565b91905055506040518060e001604052808881526020018781526020018615158152602001851515815260200184151581526020018381526020018281525060008060015481526020019081526020016000206000820151816000019081610dff919061342c565b506020820151816001019081610e15919061342c565b5060408201518160020160006101000a81548160ff02191690831515021790555060608201518160020160016101000a81548160ff02191690831515021790555060808201518160020160026101000a81548160ff02191690831515021790555060a0820151816003019081610e8b919061342c565b5060c0820151816004019081610ea1919061342c565b5090505060026040518060e001604052808981526020018881526020018715158152602001861515815260200185151581526020018481526020018381525090806001815401808255809150506001900390600052602060002090600502016000909190919091506000820151816000019081610f1e919061342c565b506020820151816001019081610f34919061342c565b5060408201518160020160006101000a81548160ff02191690831515021790555060608201518160020160016101000a81548160ff02191690831515021790555060808201518160020160026101000a81548160ff02191690831515021790555060a0820151816003019081610faa919061342c565b5060c0820151816004019081610fc0919061342c565b50505050505050505050565b600080600090505b6002805490508110156111425782604051602001610ff2919061353a565b604051602081830303815290604052805190602001206002828154811061101c5761101b613551565b5b906000526020600020906005020160010160405160200161103d9190613603565b604051602081830303815290604052805190602001200361112f5760011515600282815481106110705761106f613551565b5b906000526020600020906005020160020160009054906101000a900460ff1615151480156110d4575060001515600282815481106110b1576110b0613551565b5b906000526020600020906005020160020160019054906101000a900460ff161515145b8015611116575060011515600282815481106110f3576110f2613551565b5b906000526020600020906005020160020160029054906101000a900460ff161515145b15611125576001915050611148565b6000915050611148565b808061113a90613238565b915050610fd4565b50600090505b919050565b60015481565b60606004805480602002602001604051908101604052809291908181526020016000905b8282101561144257838290600052602060002090600502016040518060e00160405290816000820180546111aa906131d8565b80601f01602080910402602001604051908101604052809291908181526020018280546111d6906131d8565b80156112235780601f106111f857610100808354040283529160200191611223565b820191906000526020600020905b81548152906001019060200180831161120657829003601f168201915b5050505050815260200160018201805461123c906131d8565b80601f0160208091040260200160405190810160405280929190818152602001828054611268906131d8565b80156112b55780601f1061128a576101008083540402835291602001916112b5565b820191906000526020600020905b81548152906001019060200180831161129857829003601f168201915b505050505081526020016002820160009054906101000a900460ff161515151581526020016002820160019054906101000a900460ff161515151581526020016002820160029054906101000a900460ff1615151515815260200160038201805461131f906131d8565b80601f016020809104026020016040519081016040528092919081815260200182805461134b906131d8565b80156113985780601f1061136d57610100808354040283529160200191611398565b820191906000526020600020905b81548152906001019060200180831161137b57829003601f168201915b505050505081526020016004820180546113b1906131d8565b80601f01602080910402602001604051908101604052809291908181526020018280546113dd906131d8565b801561142a5780601f106113ff5761010080835404028352916020019161142a565b820191906000526020600020905b81548152906001019060200180831161140d57829003601f168201915b50505050508152505081526020019060010190611177565b50505050905090565b6060600060048111156114615761146061361a565b5b8260048111156114745761147361361a565b5b036114895761148283611c3d565b9050611584565b6001600481111561149d5761149c61361a565b5b8260048111156114b0576114af61361a565b5b036114c5576114be83611f42565b9050611584565b600260048111156114d9576114d861361a565b5b8260048111156114ec576114eb61361a565b5b03611501576114fa83612247565b9050611584565b600360048111156115155761151461361a565b5b8260048111156115285761152761361a565b5b0361153d576115368361254c565b9050611584565b6004808111156115505761154f61361a565b5b8260048111156115635761156261361a565b5b036115785761157183610207565b9050611584565b61158183611c3d565b90505b92915050565b60005b6002805490508110156117995760011515611654600283815481106115b5576115b4613551565b5b906000526020600020906005020160010180546115d1906131d8565b80601f01602080910402602001604051908101604052809291908181526020018280546115fd906131d8565b801561164a5780601f1061161f5761010080835404028352916020019161164a565b820191906000526020600020905b81548152906001019060200180831161162d57829003601f168201915b5050505050610fcc565b1515036117865760036002828154811061167157611670613551565b5b90600052602060002090600502019080600181540180825580915050600190039060005260206000209060050201600090919091909150600082018160000190816116bc919061365f565b50600182018160010190816116d1919061365f565b506002820160009054906101000a900460ff168160020160006101000a81548160ff0219169083151502179055506002820160019054906101000a900460ff168160020160016101000a81548160ff0219169083151502179055506002820160029054906101000a900460ff168160020160026101000a81548160ff0219169083151502179055506003820181600301908161176d919061365f565b5060048201816004019081611782919061365f565b5050505b808061179190613238565b91505061158d565b50565b6060600460006117ac9190612978565b60005b845181101561194257836040516020016117c9919061353a565b604051602081830303815290604052805190602001206118038683815181106117f5576117f4613551565b5b602002602001015185612851565b604051602001611813919061353a565b604051602081830303815290604052805190602001200361192f57600485828151811061184357611842613551565b5b602002602001015190806001815401808255809150506001900390600052602060002090600502016000909190919091506000820151816000019081611889919061342c565b50602082015181600101908161189f919061342c565b5060408201518160020160006101000a81548160ff02191690831515021790555060608201518160020160016101000a81548160ff02191690831515021790555060808201518160020160026101000a81548160ff02191690831515021790555060a0820151816003019081611915919061342c565b5060c082015181600401908161192b919061342c565b5050505b808061193a90613238565b9150506117af565b506004805480602002602001604051908101604052809291908181526020016000905b82821015611c3057838290600052602060002090600502016040518060e0016040529081600082018054611998906131d8565b80601f01602080910402602001604051908101604052809291908181526020018280546119c4906131d8565b8015611a115780601f106119e657610100808354040283529160200191611a11565b820191906000526020600020905b8154815290600101906020018083116119f457829003601f168201915b50505050508152602001600182018054611a2a906131d8565b80601f0160208091040260200160405190810160405280929190818152602001828054611a56906131d8565b8015611aa35780601f10611a7857610100808354040283529160200191611aa3565b820191906000526020600020905b815481529060010190602001808311611a8657829003601f168201915b505050505081526020016002820160009054906101000a900460ff161515151581526020016002820160019054906101000a900460ff161515151581526020016002820160029054906101000a900460ff16151515158152602001600382018054611b0d906131d8565b80601f0160208091040260200160405190810160405280929190818152602001828054611b39906131d8565b8015611b865780601f10611b5b57610100808354040283529160200191611b86565b820191906000526020600020905b815481529060010190602001808311611b6957829003601f168201915b50505050508152602001600482018054611b9f906131d8565b80601f0160208091040260200160405190810160405280929190818152602001828054611bcb906131d8565b8015611c185780601f10611bed57610100808354040283529160200191611c18565b820191906000526020600020905b815481529060010190602001808311611bfb57829003601f168201915b50505050508152505081526020019060010190611965565b5050505090509392505050565b6060611f3b6002805480602002602001604051908101604052809291908181526020016000905b82821015611f2f57838290600052602060002090600502016040518060e0016040529081600082018054611c97906131d8565b80601f0160208091040260200160405190810160405280929190818152602001828054611cc3906131d8565b8015611d105780601f10611ce557610100808354040283529160200191611d10565b820191906000526020600020905b815481529060010190602001808311611cf357829003601f168201915b50505050508152602001600182018054611d29906131d8565b80601f0160208091040260200160405190810160405280929190818152602001828054611d55906131d8565b8015611da25780601f10611d7757610100808354040283529160200191611da2565b820191906000526020600020905b815481529060010190602001808311611d8557829003601f168201915b505050505081526020016002820160009054906101000a900460ff161515151581526020016002820160019054906101000a900460ff161515151581526020016002820160029054906101000a900460ff16151515158152602001600382018054611e0c906131d8565b80601f0160208091040260200160405190810160405280929190818152602001828054611e38906131d8565b8015611e855780601f10611e5a57610100808354040283529160200191611e85565b820191906000526020600020905b815481529060010190602001808311611e6857829003601f168201915b50505050508152602001600482018054611e9e906131d8565b80601f0160208091040260200160405190810160405280929190818152602001828054611eca906131d8565b8015611f175780601f10611eec57610100808354040283529160200191611f17565b820191906000526020600020905b815481529060010190602001808311611efa57829003601f168201915b50505050508152505081526020019060010190611c64565b5050505083600061179c565b9050919050565b60606122406003805480602002602001604051908101604052809291908181526020016000905b8282101561223457838290600052602060002090600502016040518060e0016040529081600082018054611f9c906131d8565b80601f0160208091040260200160405190810160405280929190818152602001828054611fc8906131d8565b80156120155780601f10611fea57610100808354040283529160200191612015565b820191906000526020600020905b815481529060010190602001808311611ff857829003601f168201915b5050505050815260200160018201805461202e906131d8565b80601f016020809104026020016040519081016040528092919081815260200182805461205a906131d8565b80156120a75780601f1061207c576101008083540402835291602001916120a7565b820191906000526020600020905b81548152906001019060200180831161208a57829003601f168201915b505050505081526020016002820160009054906101000a900460ff161515151581526020016002820160019054906101000a900460ff161515151581526020016002820160029054906101000a900460ff16151515158152602001600382018054612111906131d8565b80601f016020809104026020016040519081016040528092919081815260200182805461213d906131d8565b801561218a5780601f1061215f5761010080835404028352916020019161218a565b820191906000526020600020905b81548152906001019060200180831161216d57829003601f168201915b505050505081526020016004820180546121a3906131d8565b80601f01602080910402602001604051908101604052809291908181526020018280546121cf906131d8565b801561221c5780601f106121f15761010080835404028352916020019161221c565b820191906000526020600020905b8154815290600101906020018083116121ff57829003601f168201915b50505050508152505081526020019060010190611f69565b5050505083600161179c565b9050919050565b60606125456002805480602002602001604051908101604052809291908181526020016000905b8282101561253957838290600052602060002090600502016040518060e00160405290816000820180546122a1906131d8565b80601f01602080910402602001604051908101604052809291908181526020018280546122cd906131d8565b801561231a5780601f106122ef5761010080835404028352916020019161231a565b820191906000526020600020905b8154815290600101906020018083116122fd57829003601f168201915b50505050508152602001600182018054612333906131d8565b80601f016020809104026020016040519081016040528092919081815260200182805461235f906131d8565b80156123ac5780601f10612381576101008083540402835291602001916123ac565b820191906000526020600020905b81548152906001019060200180831161238f57829003601f168201915b505050505081526020016002820160009054906101000a900460ff161515151581526020016002820160019054906101000a900460ff161515151581526020016002820160029054906101000a900460ff16151515158152602001600382018054612416906131d8565b80601f0160208091040260200160405190810160405280929190818152602001828054612442906131d8565b801561248f5780601f106124645761010080835404028352916020019161248f565b820191906000526020600020905b81548152906001019060200180831161247257829003601f168201915b505050505081526020016004820180546124a8906131d8565b80601f01602080910402602001604051908101604052809291908181526020018280546124d4906131d8565b80156125215780601f106124f657610100808354040283529160200191612521565b820191906000526020600020905b81548152906001019060200180831161250457829003601f168201915b5050505050815250508152602001906001019061226e565b5050505083600261179c565b9050919050565b606061284a6002805480602002602001604051908101604052809291908181526020016000905b8282101561283e57838290600052602060002090600502016040518060e00160405290816000820180546125a6906131d8565b80601f01602080910402602001604051908101604052809291908181526020018280546125d2906131d8565b801561261f5780601f106125f45761010080835404028352916020019161261f565b820191906000526020600020905b81548152906001019060200180831161260257829003601f168201915b50505050508152602001600182018054612638906131d8565b80601f0160208091040260200160405190810160405280929190818152602001828054612664906131d8565b80156126b15780601f10612686576101008083540402835291602001916126b1565b820191906000526020600020905b81548152906001019060200180831161269457829003601f168201915b505050505081526020016002820160009054906101000a900460ff161515151581526020016002820160019054906101000a900460ff161515151581526020016002820160029054906101000a900460ff1615151515815260200160038201805461271b906131d8565b80601f0160208091040260200160405190810160405280929190818152602001828054612747906131d8565b80156127945780601f1061276957610100808354040283529160200191612794565b820191906000526020600020905b81548152906001019060200180831161277757829003601f168201915b505050505081526020016004820180546127ad906131d8565b80601f01602080910402602001604051908101604052809291908181526020018280546127d9906131d8565b80156128265780601f106127fb57610100808354040283529160200191612826565b820191906000526020600020905b81548152906001019060200180831161280957829003601f168201915b50505050508152505081526020019060010190612573565b5050505083600361179c565b9050919050565b6060600060048111156128675761286661361a565b5b82600481111561287a5761287961361a565b5b0361288b5782600001519050612972565b6001600481111561289f5761289e61361a565b5b8260048111156128b2576128b161361a565b5b036128c35782600001519050612972565b600260048111156128d7576128d661361a565b5b8260048111156128ea576128e961361a565b5b036128fb5782602001519050612972565b6003600481111561290f5761290e61361a565b5b8260048111156129225761292161361a565b5b03612933578260a001519050612972565b6004808111156129465761294561361a565b5b8260048111156129595761295861361a565b5b0361296a578260c001519050612972565b826000015190505b92915050565b5080546000825560050290600052602060002090810190612999919061299c565b50565b5b80821115612a2b57600080820160006129b69190612a2f565b6001820160006129c69190612a2f565b6002820160006101000a81549060ff02191690556002820160016101000a81549060ff02191690556002820160026101000a81549060ff0219169055600382016000612a129190612a2f565b600482016000612a229190612a2f565b5060050161299d565b5090565b508054612a3b906131d8565b6000825580601f10612a4d5750612a6c565b601f016020900490600052602060002090810190612a6b9190612a6f565b5b50565b5b80821115612a88576000816000905550600101612a70565b5090565b6000604051905090565b600080fd5b600080fd5b600080fd5b600080fd5b6000601f19601f8301169050919050565b7f4e487b7100000000000000000000000000000000000000000000000000000000600052604160045260246000fd5b612af382612aaa565b810181811067ffffffffffffffff82111715612b1257612b11612abb565b5b80604052505050565b6000612b25612a8c565b9050612b318282612aea565b919050565b600067ffffffffffffffff821115612b5157612b50612abb565b5b612b5a82612aaa565b9050602081019050919050565b82818337600083830152505050565b6000612b89612b8484612b36565b612b1b565b905082815260208101848484011115612ba557612ba4612aa5565b5b612bb0848285612b67565b509392505050565b600082601f830112612bcd57612bcc612aa0565b5b8135612bdd848260208601612b76565b91505092915050565b600060208284031215612bfc57612bfb612a96565b5b600082013567ffffffffffffffff811115612c1a57612c19612a9b565b5b612c2684828501612bb8565b91505092915050565b600081519050919050565b600082825260208201905092915050565b6000819050602082019050919050565b600081519050919050565b600082825260208201905092915050565b60005b83811015612c95578082015181840152602081019050612c7a565b60008484015250505050565b6000612cac82612c5b565b612cb68185612c66565b9350612cc6818560208601612c77565b612ccf81612aaa565b840191505092915050565b60008115159050919050565b612cef81612cda565b82525050565b600060e0830160008301518482036000860152612d128282612ca1565b91505060208301518482036020860152612d2c8282612ca1565b9150506040830151612d416040860182612ce6565b506060830151612d546060860182612ce6565b506080830151612d676080860182612ce6565b5060a083015184820360a0860152612d7f8282612ca1565b91505060c083015184820360c0860152612d998282612ca1565b9150508091505092915050565b6000612db28383612cf5565b905092915050565b6000602082019050919050565b6000612dd282612c2f565b612ddc8185612c3a565b935083602082028501612dee85612c4b565b8060005b85811015612e2a5784840389528151612e0b8582612da6565b9450612e1683612dba565b925060208a01995050600181019050612df2565b50829750879550505050505092915050565b60006020820190508181036000830152612e568184612dc7565b905092915050565b6000819050919050565b612e7181612e5e565b8114612e7c57600080fd5b50565b600081359050612e8e81612e68565b92915050565b600060208284031215612eaa57612ea9612a96565b5b6000612eb884828501612e7f565b91505092915050565b600082825260208201905092915050565b6000612edd82612c5b565b612ee78185612ec1565b9350612ef7818560208601612c77565b612f0081612aaa565b840191505092915050565b612f1481612cda565b82525050565b600060e0820190508181036000830152612f34818a612ed2565b90508181036020830152612f488189612ed2565b9050612f576040830188612f0b565b612f646060830187612f0b565b612f716080830186612f0b565b81810360a0830152612f838185612ed2565b905081810360c0830152612f978184612ed2565b905098975050505050505050565b612fae81612cda565b8114612fb957600080fd5b50565b600081359050612fcb81612fa5565b92915050565b600080600080600080600060e0888a031215612ff057612fef612a96565b5b600088013567ffffffffffffffff81111561300e5761300d612a9b565b5b61301a8a828b01612bb8565b975050602088013567ffffffffffffffff81111561303b5761303a612a9b565b5b6130478a828b01612bb8565b96505060406130588a828b01612fbc565b95505060606130698a828b01612fbc565b945050608061307a8a828b01612fbc565b93505060a088013567ffffffffffffffff81111561309b5761309a612a9b565b5b6130a78a828b01612bb8565b92505060c088013567ffffffffffffffff8111156130c8576130c7612a9b565b5b6130d48a828b01612bb8565b91505092959891949750929550565b60006020820190506130f86000830184612f0b565b92915050565b61310781612e5e565b82525050565b600060208201905061312260008301846130fe565b92915050565b6005811061313557600080fd5b50565b60008135905061314781613128565b92915050565b6000806040838503121561316457613163612a96565b5b600083013567ffffffffffffffff81111561318257613181612a9b565b5b61318e85828601612bb8565b925050602061319f85828601613138565b9150509250929050565b7f4e487b7100000000000000000000000000000000000000000000000000000000600052602260045260246000fd5b600060028204905060018216806131f057607f821691505b602082108103613203576132026131a9565b5b50919050565b7f4e487b7100000000000000000000000000000000000000000000000000000000600052601160045260246000fd5b600061324382612e5e565b91507fffffffffffffffffffffffffffffffffffffffffffffffffffffffffffffffff820361327557613274613209565b5b600182019050919050565b60008190508160005260206000209050919050565b60006020601f8301049050919050565b600082821b905092915050565b6000600883026132e27fffffffffffffffffffffffffffffffffffffffffffffffffffffffffffffffff826132a5565b6132ec86836132a5565b95508019841693508086168417925050509392505050565b6000819050919050565b600061332961332461331f84612e5e565b613304565b612e5e565b9050919050565b6000819050919050565b6133438361330e565b61335761334f82613330565b8484546132b2565b825550505050565b600090565b61336c61335f565b61337781848461333a565b505050565b5b8181101561339b57613390600082613364565b60018101905061337d565b5050565b601f8211156133e0576133b181613280565b6133ba84613295565b810160208510156133c9578190505b6133dd6133d585613295565b83018261337c565b50505b505050565b600082821c905092915050565b6000613403600019846008026133e5565b1980831691505092915050565b600061341c83836133f2565b9150826002028217905092915050565b61343582612c5b565b67ffffffffffffffff81111561344e5761344d612abb565b5b61345882546131d8565b61346382828561339f565b600060209050601f8311600181146134965760008415613484578287015190505b61348e8582613410565b8655506134f6565b601f1984166134a486613280565b60005b828110156134cc578489015182556001820191506020850194506020810190506134a7565b868310156134e957848901516134e5601f8916826133f2565b8355505b6001600288020188555050505b505050505050565b600081905092915050565b600061351482612c5b565b61351e81856134fe565b935061352e818560208601612c77565b80840191505092915050565b60006135468284613509565b915081905092915050565b7f4e487b7100000000000000000000000000000000000000000000000000000000600052603260045260246000fd5b6000815461358d816131d8565b61359781866134fe565b945060018216600081146135b257600181146135c7576135fa565b60ff19831686528115158202860193506135fa565b6135d085613280565b60005b838110156135f2578154818901526001820191506020810190506135d3565b838801955050505b50505092915050565b600061360f8284613580565b915081905092915050565b7f4e487b7100000000000000000000000000000000000000000000000000000000600052602160045260246000fd5b600081549050613658816131d8565b9050919050565b81810361366d575050613745565b61367682613649565b67ffffffffffffffff81111561368f5761368e612abb565b5b61369982546131d8565b6136a482828561339f565b6000601f8311600181146136d357600084156136c1578287015490505b6136cb8582613410565b86555061373e565b601f1984166136e187613280565b96506136ec86613280565b60005b82811015613714578489015482556001820191506001850194506020810190506136ef565b86831015613731578489015461372d601f8916826133f2565b8355505b6001600288020188555050505b5050505050505b56fea26469706673582212208c6be9412b7f8ceeb35068c0d008982986a52c98ac38b72229074ca279f707d264736f6c63430008120033",
  "immutableReferences": {},
  "source": "// SPDX-License-Identifier: GPL-3.0\r\npragma solidity >=0.8.13;\r\n\r\ncontract OrganicFood{\r\n    // Initialize a struct represent to product object\r\n    struct Product {\r\n        string name;\r\n        string productId;\r\n        bool isNaturalFertilizer;\r\n        bool isChemical;\r\n        bool isNutrients;\r\n        string farmer;\r\n        string location;\r\n    }\r\n\r\n    // Initialize an enum represent to search type\r\n    enum SearchType{ \r\n        NAMEALLPRODUCTS, //The name of all products\r\n        NAMEORGANICFOOD, //The name of all organic products\r\n        PRODUCTID,       //The product id\r\n        FARMER,          //The farmer's name\r\n        LOCATION         //The location\r\n    }\r\n\r\n    mapping(uint => Product) public products;\r\n    uint public id = 0;\r\n    Product[] allProductList;\r\n    Product[] organicProductList;\r\n    Product[] result;\r\n\r\n    //Pre-condition: Create a set of products\r\n    function createProduct(string memory name,\r\n        string memory productId,\r\n        bool isNaturalFertilizer,\r\n        bool isChemical,\r\n        bool isNutrients,\r\n        string memory farmer,\r\n        string memory location) public {\r\n            id++;\r\n            products[id] = Product(name, productId, isNaturalFertilizer, isChemical, isNutrients, farmer, location);\r\n            allProductList.push(Product(name, productId, isNaturalFertilizer, isChemical, isNutrients, farmer, location));\r\n        \r\n    }\r\n\r\n    function listAllProducts() public view returns (Product[] memory){\r\n       return allProductList;\r\n    }\r\n\r\n    //FEATURE 1. Verify if a product is organic food\r\n    /* MAIN function: Depend on input properties (isNaturalFertilizer, isChemical, isNutrients) \r\n        then concluding it's organic or not */\r\n    function checkProductOrganic(string memory productId) public view returns(bool){\r\n        for(uint i = 0; i < allProductList.length; i++){\r\n            if(keccak256(abi.encodePacked((allProductList[i].productId))) == keccak256(abi.encodePacked((productId)))){\r\n                if(allProductList[i].isNaturalFertilizer == true \r\n                && allProductList[i].isChemical == false\r\n                && allProductList[i].isNutrients == true){\r\n                    return true;\r\n                } else {\r\n                    return false;\r\n                }\r\n            }\r\n        }\r\n        return false;\r\n    }\r\n\r\n    //FEATURE 2. List all the existing organic food\r\n    /*Supported function: \r\n    1. Go through each product in inserted list \r\n    2. Check if that product is organic\r\n    3. If it's organic, push to OrganicProductList*/\r\n    function verifyOrganicList() public {\r\n        for(uint i = 0; i < allProductList.length; i++){\r\n            if(checkProductOrganic(allProductList[i].productId) == true){\r\n                organicProductList.push(allProductList[i]);\r\n            }\r\n        }\r\n    }\r\n\r\n    //MAIN function: List all organic products\r\n    function listAllOrganicProducts() public view returns (Product[] memory){\r\n       return organicProductList;\r\n    }\r\n\r\n    //FEATURE 3. Search food function \r\n    /*Supported function: Prevent from duplicated code\r\n    Check if input value is equal existing value in the array\r\n    If yes, push that product to the array\r\n    If no, skip it and continue to check next item */\r\n    function searchGeneral(Product[] memory inputArray, string memory inputValue, SearchType searchType) private returns(Product[] memory){\r\n        delete result;\r\n        for(uint i = 0; i < inputArray.length; i++){\r\n            if ((keccak256(abi.encodePacked((getProductPropertyValueBasedOnSearchType(inputArray[i], searchType)))) == \r\n                keccak256(abi.encodePacked((inputValue))))){\r\n                result.push(inputArray[i]);\r\n            }\r\n        }\r\n        return result;\r\n    }\r\n\r\n    /*Supported function: Return the property's value of input product, based on searchType*/\r\n    function getProductPropertyValueBasedOnSearchType(Product memory prdct, SearchType searchType) private pure returns(string memory){\r\n        if(searchType == SearchType.NAMEALLPRODUCTS)\r\n        {\r\n            return prdct.name;\r\n        } \r\n        else if (searchType == SearchType.NAMEORGANICFOOD)\r\n        {\r\n            return prdct.name;\r\n        } \r\n        else if (searchType == SearchType.PRODUCTID)\r\n        {\r\n            return prdct.productId;\r\n        } \r\n        else if (searchType == SearchType.FARMER)\r\n        {\r\n            return prdct.farmer;\r\n        } \r\n        else if (searchType == SearchType.LOCATION)\r\n        {\r\n            return prdct.location;\r\n        } \r\n        else {\r\n            return prdct.name;\r\n        }\r\n    }\r\n\r\n    //Supported function: search by name in all product list\r\n    function searchByNameAllProduct(string memory name) private returns(Product[] memory){\r\n        return searchGeneral(allProductList, name, SearchType.NAMEALLPRODUCTS);\r\n    }\r\n\r\n    //Supported function: search by name in organic product list\r\n    function searchByNameOrganicFood(string memory name) private returns(Product[] memory){\r\n        return searchGeneral(organicProductList, name, SearchType.NAMEORGANICFOOD);\r\n    }\r\n\r\n    //Supported function: search by productId in all product list\r\n    function searchByProductId(string memory productId) private returns(Product[] memory){\r\n        return searchGeneral(allProductList, productId, SearchType.PRODUCTID);\r\n    }\r\n\r\n    //Supported function: search by farmer in all product list\r\n    function searchByFarmer(string memory farmer) private returns(Product[] memory){\r\n        return searchGeneral(allProductList, farmer, SearchType.FARMER);\r\n    }\r\n\r\n    //Supported function: search by location in all product list\r\n    function searchByLocation(string memory location) public returns(Product[] memory){\r\n        return searchGeneral(allProductList, location, SearchType.LOCATION);\r\n    }\r\n\r\n    /* MAIN function: High level action - Search product based on input string and search type*/\r\n    function search(string memory inputString, SearchType searchType) public returns(Product[] memory){\r\n        if(searchType == SearchType.NAMEALLPRODUCTS)\r\n        {\r\n            return searchByNameAllProduct(inputString);\r\n        } \r\n        else if (searchType == SearchType.NAMEORGANICFOOD)\r\n        {\r\n            return searchByNameOrganicFood(inputString);\r\n        } \r\n        else if (searchType == SearchType.PRODUCTID)\r\n        {\r\n            return searchByProductId(inputString);\r\n        } \r\n        else if (searchType == SearchType.FARMER)\r\n        {\r\n            return searchByFarmer(inputString);\r\n        } \r\n        else if (searchType == SearchType.LOCATION)\r\n        {\r\n            return searchByLocation(inputString);\r\n        } \r\n        else {\r\n            return searchByNameAllProduct(inputString);\r\n        }\r\n    }\r\n\r\n    function getSearchResult() public view returns(Product[] memory){\r\n        return result;\r\n    }\r\n\r\n}",
  "sourcePath": "C:\\Users\\Nguyen Hong Phuc\\Documents\\workspaces\\SmartContract\\OrganicFood\\Project\\OrganicFood\\contracts\\OrganicFood.sol",
  "compiler": {
    "name": "solc",
    "version": "0.8.18+commit.87f61d96.Emscripten.clang"
  },
  "schemaVersion": "3.4.12",
  "updatedAt": "2023-04-24T18:21:18.623Z",
  "networkType": "ethereum",
  "devdoc": {
    "kind": "dev",
    "methods": {},
    "version": 1
  },
  "userdoc": {
    "kind": "user",
    "methods": {},
    "version": 1
  }
}